:1000000002000375814A120279E582600302006FE3
:10001000780079007A007B007C007D00EC4D601C4C
:1000200088828983E493A3A882A9838A828B83F040
:10003000A3AA82AB831CBCFFE31D80E07582007520
:1000400083007C007D00EC4D600AE4F0A31CBCFF43
:10005000F51D80F27582007583007C007D00EC4DFB
:10006000600AE4F0A31CBCFFF51D80F212015F12D0
:10007000033980FE1B5B324A0045464D38204672EC
:10008000657175656E6379206D6561737572656DF7
:10009000656E74207573696E672054696D65722F83
:1000A000436F756E74657220302E0A46696C653A2E
:1000B0002025730A436F6D70696C65643A2025735F
:1000C0002C2025730A0A00433A5C55736572735CF1
:1000D00031373738325C446F776E6C6F6164735CB4
:1000E0005363686F6F6C205265736F7572636573CD
:1000F0005C5542432059325C454C45435C454C4578
:1001000043203239315C4C6162345C6C6162345F33
:100110006D61696E2E630046656220323720323091
:1001200032350031303A33303A3334004361706154
:10013000636974616E63653A006E6F20636170611C
:100140006369746F72002566207546000D663D2553
:100150006C75487A0A0025730A001B5B304B00223D
:10016000D2A07582281202CDC2A022AA828AE0A261
:10017000E79290A2E69291A2E59292A2E49293C0B5
:10018000021201607582281202CDD0028AE0A2E339
:100190009290A2E29291A2E19292A2E09293020145
:1001A00060AA82C2978A8212016B9000050202FE49
:1001B000AA82D2978A8212016B9000020202FEC2CA
:1001C000A09000141202FE7582331201A1758233D1
:1001D0001201A17582321201A17582281201A17546
:1001E000820C1201A17582011201A1900014020279
:1001F000FEAA82AB83ACF07402B50A047DC0800213
:100200007D808D82C002C003C0041201A190000550
:100210001202FED004D003D0027D007E00ED2AFF42
:10022000EE3BF88C018F82888389F0120520FF60F5
:10023000208F82C002C003C004C005C0061201B0F6
:10024000D006D005D004D003D0020DBD00CF0E8063
:10025000CC3000248D028E03C3EA9410EB648094AA
:10026000805015758220C002C0031201B0D003D0A7
:10027000020ABA00E30B80E02275A7007597DE75CD
:1002800097AD43FF8075EF0275A71075C12075A764
:100290000075A90075A900E5A930E7FB75A90375EC
:1002A000A903E5A930E7FB43A41075E10175E2104D
:1002B00075E340759810858E8E758DE6858D8B5310
:1002C000890F438920D28ED29975820022AA824357
:1002D0008E407592B87593FF85929485939575912C
:1002E000047B00C3EB9A5012E59130E7FB53917FFA
:1002F000108D02800205090B80E975910022AA8207
:10030000AB83BA0004BB0001227582F9C002C003AE
:100310001202CD7582F91202CD7582F91202CD75E5
:1003200082FA1202CDD003D0021ABAFF011B80D28A
:100330005389F0438905C28C221203301201BF9009
:1003400001F41202FE7474C0E07400C0E07480C056
:10035000E01205F41581158115817423C0E0740144
:10036000C0E07480C0E07417C0E07401C0E0748025
:10037000C0E074C7C0E07400C0E07480C0E074796D
:10038000C0E07400C0E07480C0E01205F4E5812490
:10039000F4F581758A00758C00750900C28DD28CC8
:1003A0009003E81202FEC28CAA097B008B058A0426
:1003B0007B007A00AE8C7F00780088018F008E076A
:1003C000E42AFAEF3BFBE83CFCE93DFDAE8AE4FFA2
:1003D0003395E0F8F9EE2AFAEF3BFBE83CFCE93D07
:1003E000FD8A828B838CF0C002C003C004C005125A
:1003F0000615AE82AF83A8F0F9C006C007C000C0E2
:100400000190B00075F09B744612053CAE82AF833C
:10041000A8F0F9E58124FCF581C006C007C000C042
:100420000190C80075F0AF74491206BDAE82AF836B
:10043000A8F0F9E58124FCF581750A01D20090014C
:100440002C75F080C006C007C000C0011201F1D0B9
:1004500001D000D007D006D005D004D003D002EAE6
:100460004B4C4D702E750A02D20090013975F08008
:10047000C002C003C004C005C006C007C000C00160
:100480001201F1D001D000D007D006D005D004D0A1
:1004900003D002C002C003C004C005C006C007C02C
:1004A00000C0017446C0E07401C0E07480C0E07414
:1004B0000BC0E07400C0E07440C0E0120677E58134
:1004C00024F6F581750A02D20090000B75F04012F7
:1004D00001F1744CC0E07401C0E07480C0E012050A
:1004E000F4E58124F9F581740BC0E07400C0E07478
:1004F00040C0E07456C0E07401C0E07480C0E012F7
:1005000005F4E58124FAF581745AC0E07401C0E075
:100510007480C0E01205F4158115811581020393E2
:1005200020F71430F6148883A88220F507E6A88304
:1005300075830022E280F7E49322E02212085EBC79
:1005400000030207FDEF60FA30D502B2D1E583B4B3
:10055000FF03020813E582B4FF030208132583405A
:10056000072482400B0207FD248314500302081362
:10057000F582EA8DF0A4A8F0EA8EF0A428F8E4351C
:10058000F0F9EB8DF0A428E935F0F9E433CA8FF0E7
:10059000A429F9EA35F0FAEBF88EF0A429F9EA3546
:1005A000F0FAE433FBEC8DF0A429F9EA35F0FAE433
:1005B0003BFBE88FF0A42AFAEB35F0FBE433CCFDEB
:1005C0008EF0A42AFAEB35F0FBE43CFCED8FF0A4AE
:1005D0002BFBEC35F0FC20E70312082B0207DC02B2
:1005E000121885823785833885F039851B3A900546
:1005F000DF020C6BC008858108E50824FBF53AE5AD
:100600000824FBF886370886380886399005DF12FB
:100610000C6BD00822FCABF0AA83A982749EC2D1D5
:10062000F58212082B0207DCAA82AB22AC23AD2490
:100630008B828C838DF0EA12122D0522E4B5220202
:1006400005232285822285832385F024852537850D
:10065000263885273985283A900628120C6BAA82FD
:10066000AB83AC22AD23AE248C828D838EF0E4125A
:10067000122D8A828B8322C008858108E50824F820
:10068000F53AE50824FBF88622088623088624E547
:100690000824F8F886370886380886399006281224
:1006A0000C6BAA82AB83AC22AD23AE248C828D83EB
:1006B0008EF0E412122D8A828B83D0082212085EFB
:1006C00030D502B2D1BF0009BC00030208200208E5
:1006D00013BC00030207FDE583B4FF0BE582B4FF02
:1006E000030208200207FDE582B4FF03020813C3DA
:1006F00095835007247F400B0207FD24801450038C
:10070000020813C0E0E4CCCBCAF98D1C8E1D8F1EED
:10071000EF54F0C4F51F758306851FF0EB84F58256
:10072000E9C4F9EAC4FAEBC4FBEC540FC47803D66D
:10073000FC18EBD6FB18EAD6FA8582F0EDA4A8F0F7
:10074000FD8582F0EEA428FEE435F0F88582F0EF16
:10075000A428FFE435F0F8E99DF9EA9EFAEB9FFB47
:10076000EC98FCAD1CAE1DAF1E30E7101582E92DD4
:10077000F9EA3EFAEB3FFBE43CFC80EDC082D58316
:1007800098C3E933F9EA33FAEB33FBEC33FCC3E902
:100790009DEA9EEB9FEC9400B3E413F9D002D0E005
:1007A000C44AFAD003D0E0C44BFBD004D0E0F5F04B
:1007B000540FC44CFCD082158230F40FD3EC13FCE0
:1007C000EB13FBEA13FAE913F90582E930E70A743F
:1007D000012AFAE43BFBE43CFC0207F4B98003EA9B
:1007E00013B34010EA2401FAE43BFBE43CFC500460
:1007F0007C800582BC000EBB000BBA0008E4F5F05B
:10080000F583F58222A2D1E582138CF092F78B83D7
:100810008A8222E4F583F58275F080F4A2D1132256
:10082000E4F583F58275F0C0747F227804EC7011D2
:10083000E58224F8500AF582E4C9CACBFCD8EF223D
:10084000EC7820058220E713D5820122C3E933F931
:10085000EA33FAEB33FBEC33FCD8EA158222AA82A6
:10086000AB83A2F73392D16002D2F7F582ACF0E508
:100870008124F9F8E6FD08E6FE0886F008E6A2F70E
:100880003392D56002D2F7F583AFF022AA82749D2D
:10089000C0E07408C0E0C029C02A8A82220530E482
:1008A000B53002053122AA8274302AFA24C6500AD1
:1008B00074072AFA3001034302208A8202088CE579
:1008C00082FAC4540FF582C0021208A6D002740F37
:1008D0005AF5820208A6AA2BAB2CAC2DAD2EAE2F5A
:1008E000753620EE2EFEED235401FF4206EA2AFA69
:1008F000EB33FBEC33FCED33FDC3EE95324008EEF9
:10090000C39532FE430201D536D98A2B8B2C8C2D10
:100910008D2E8E2F227847E624D075F00AA4FA781F
:1009200048E624D02AFA78468603BB2D04C3E49A0D
:10093000FA753201C3E464808AF063F08095F05068
:10094000297536038A0374F62536401C0532E536D0
:1009500014243BF8E536243BF98704A604772E1BC4
:10096000EBFA6004053680DE8B02EA30E70D783C56
:100970008603783DA603783C762E0AE534600AE5C6
:100980003404FB2532F5328005300C020532783B09
:100990008603E4BB2D0104FB700620070330080228
:1009A0000532300503020A5C300657EB600C758295
:1009B0002DC00212088CD002801C30070C75822BCF
:1009C000C00212088CD002800D30080A758220C047
:1009D0000212088CD002783C8604BC2E0C75823042
:1009E000C00212088CD0021533AC331533C3E53284
:1009F0009C4003020AA0758230C00212088CD0020B
:100A000080E7AC331533C3E5329C500C758220C0AF
:100A10000212088CD00280EA783B8604BC2D0C754B
:100A2000822DC00212088CD002801C30070C758207
:100A30002BC00212088CD002800D30080A7582206B
:100A4000C00212088CD002783C8604BC2E527582FB
:100A500030C00212088CD00215338044EB600E7552
:100A6000822DC00212088CD0021533802030070E70
:100A700075822BC00212088CD0021533800F30080B
:100A80000C758220C00212088CD0021533783C8687
:100A900003BB2E0C758230C00212088CD0021533B5
:100AA000753601C20EE536243BF88603BB450302CA
:100AB0000B5DBB2E348A03C3E464808BF063F0804B
:100AC00095F0500F758230C00312088CD0031B8B39
:100AD0000280E48B02D20EE5347038200C03020B46
:100AE0005D75822E12088C8074300E278A03EB30DD
:100AF000E71FC3E464808534F063F08095F0500C08
:100B0000758230C00312088CD00315340B8B028021
:100B1000DD8B02300E0EC3E464808534F063F08018
:100B200095F05021E536243BF886038B82C00212F3
:100B3000088CD002300E0EE536243BF88603BB2E1F
:100B400002800215341533C3E464808534F063F009
:100B50008095F04003200E050536020AA5C3E46423
:100B6000808534F063F08095F0500A758230120869
:100B70008C153480E830050FAA331533EA60087508
:100B8000822012088C80F122E5347003300C0D7441
:100B9000072534FAE533C39AF5338006E53324FAA2
:100BA000F533753600783B8602BA2B0F20070C7898
:100BB0003B76202008057536010533200519AA3338
:100BC000C3E464808AF063F08095F0500A75822057
:100BD00012088C153380E7C20EE536243BF88602F6
:100BE000BA00028069BA451F3001027665C3E46429
:100BF000808534F063F08095F0500A7582301208D9
:100C00008C153480E8D20EC3E5369402E433FA70D2
:100C100014EA700EC3E464808534F063F08095F0CC
:100C20004003300E16E536243BF886028A8212080D
:100C30008CE53624FD50121534800E7402B5360949
:100C4000300C0675822E12088C0536020BD9300541
:100C500019AA33C3E464808AF063F08095F0500AE7
:100C600075822012088C153380E7228582298583BE
:100C70002AE4F530F531AA37AB38AC398A828B8358
:100C80008CF0120520FD74012AF537E43BF5388C11
:100C900039EDFA7003021211BA250280030212091B
:100CA000C205C206C207C208C209C20AC20BC20CF0
:100CB000C202C203C2047532007533007534FFAB43
:100CC00037AC38AD398B828C838DF0120520FAA3B6
:100CD000AB82AC838B378C388D39BA25078A821268
:100CE000088C80928A06BE3000402E8A06EE24C60A
:100CF000402774FFB53413E53375F00AA4FEEA24E7
:100D0000D02EF53370BFD20680BBE53475F00AA44F
:100D1000FEEA24D02EF53480ACBA2E0A74FFB53426
:100D2000A4753400809F8A06BE6100400E8A06EEDC
:100D3000248540075302DFD2018002C201BA20029B
:100D40008075BA2303020DC6BA2A03020DCBBA2B53
:100D500002805FBA2D028055BA4202805FBA430317
:100D6000020E10BA4403020F4BBA4503020F65BAD4
:100D70004603020F61BA4703020F69BA4903020F23
:100D80004BBA4C02803BBA4E03020F6DBA4F0302BE
:100D90000F52BA5003020EE4BA5303020E34BA558E
:100DA00003020F57BA5803020F5C020F97D20502D5
:100DB0000CC5D207020CC5D208020CC5D20A020C1F
:100DC000C5D20B020CC5D20C020CC574FFB5342081
:100DD000300A0BE53A14F8883A8633020CC5E53A36
:100DE00024FEF8883A8606088607188E33020CC55A
:100DF000300A0BE53A14F8883A8634020CC5E53A15
:100E000024FEF8883A8606088607188E34020CC538
:100E1000300A0AE53A14F8883A8602800FE53A2447
:100E2000FEF8883A8603088604188B028A82120824
:100E30008C020F9CE53A24FDF8883A860308860464
:100E400008860518188B2B8C2C8D2D8B828C838D0E
:100E5000F0121365AB82AC838B3574FFB534038518
:100E6000353420051DC3E53595335016E533C3955C
:100E700035F533AB331533EB600875822012088CDF
:100E800080F1852B82852C83852DF0120520FBFABD
:100E90006029AB341534C3E464808BF063F0809533
:100EA000F050188A8212088CAB2BAC2CAD2D0BBBEA
:100EB00000010C8B2B8C2C8D2D80C7200503020F7D
:100EC0009CC3E53595334003020F9CE533C395354C
:100ED000F533AB331533EB7003020F9C7582201290
:100EE000088C80EEE53A24FDF8883A8603088604EB
:100EF00008860518188B2B8C2C8D2DE52DFB30E7E3
:100F0000047A438013EB546060047A50800AEB301B
:100F1000E6047A4980027A588A82C00212088C75E7
:100F2000823A12088C75823012088C758278120809
:100F30008CD002BA4902800BBA50028006852C82FE
:100F40001208BF852B821208BF8051D20975320A60
:100F5000804A753208804575320A804075321080AB
:100F60003BD2028037D2038033D204802FE53A246B
:100F7000FDF8883A860308860408860518188B2B26
:100F80008C2C8D2D8B828C838DF0E53012122DA34D
:100F9000E53112122D80058A8212088C200206206B
:100FA0000303300470E53A24FCF8883A8603088687
:100FB000040886050886061818188B2B8C2C8D2D96
:100FC0008E2EE52BE52CE52DE52E8B828C838DF086
:100FD000EE12124674FFB5340375340630042774DC
:100FE0007F552EFB8B2FE52FEB2BFB8B2FE52D3029
:100FF000E7067401452FF52FE52F24684006749904
:10100000252F4002D203300306120B88020C761201
:101010000915020C76E5327003020C767B40300A2B
:101020002BE53A14F8883AE6FC3395E0FDFEFF8C98
:101030002B8D2C8E2D8F2E20095EAC2B7D007E00FB
:101040007F008C2B8D2C8E2D8F2E804C300B1FE52E
:101050003A24FCF8883A860408860508860608863D
:10106000071818188C2B8D2C8E2D8F2E802AE53A80
:1010700024FEF8883A860408860518ED3395E0FECC
:10108000FF8C2B8D2C8E2D8F2E20090CAC2BAD2C94
:101090007E007F008E2D8F2E300C43E52B452C4596
:1010A0002D452E60397408B5320C758230C003129C
:1010B000088CD00380287410B53223758230C003A9
:1010C00012088CD00330010C758278C00312088C92
:1010D000D003800A758258C00312088CD0033009EF
:1010E00025AC2BAD2CAE2DE52EFF30E717C3E49CCD
:1010F000FCE49DFDE49EFEE49FFF8C2B8D2C8E2D49
:101100008F2E8002C209753500D20D8B00752F001D
:10111000C0001208D6D000200D0DE52FC4FCE6FD5E
:101120004CF61888038002A62F0535B20DE52B4535
:101130002C452D452E70D68803E533700375330199
:1011400020061A200517E53504FCC39533500E75AB
:101150008220C00312088CD003153380E930090EB9
:1011600075822DC00312088CD00315338024E53519
:10117000602030070E75822BC00312088CD0031537
:1011800033800F30080C758220C00312088CD00306
:10119000153320051EAC331533C3E5359C5027307D
:1011A00006047C3080027C208C82C00312088CD024
:1011B0000380E2C3E53595335009E533C39535F532
:1011C0003380037533008B00AB351535EB6022B2ED
:1011D0000D200D0A08E6C4540FFB8B2F80078603F1
:1011E000740F5BF52F852F82C0001208A6D00080F7
:1011F000D7200503020C76AB331533EB7003020CDA
:101200007675822012088C80EE8A8212088C020C7D
:101210007685308285318322AA82BA0A0810990223
:1012200080FB75990D10990280FB8A992220F71096
:1012300030F6118883A88220F507F6A8837583000D
:1012400022F280F7F022C0E0F84582458345F07035
:1012500009F5F0FBFCFDFE021314E823A2F792E06F
:10126000F8A982AA83D2F7ABF07C007E07C37497FB
:1012700098404074FF2EFE740A89F0A4F985F0822C
:10128000740A8AF0A4FA85F083740A8BF0A4FB74C4
:101290000529F9EA3582FAEB3583FB740035F0FC59
:1012A000C3EC13FCEB13FBEA13FAE913F908EC7037
:1012B000EF80BAE8C3947FF88B838EF0E4FBFCFDEB
:1012C000FEFF08C3E933F9EA33FAE58333F583EB2C
:1012D0003BD4FBEC3CD4FCED3DD4FDEE3ED4FEEF24
:1012E0003FD4FF602D05F074052BD4FBE43CD4FC07
:1012F000E43DD4FDE43ED4FEE43FD4FF758204C354
:10130000EF13FFEE13FEED13FDEC13FCEB13FBD517
:1013100082EDD8AF783BD0E020E704762B800276D0
:101320002D087906E7C4540F4430F608B906037651
:101330002E08E7540F4430F60819B902E77645083D
:10134000E5F020E704762B8004762DF4040875F090
:101350000A844430F608E5F04430F608E4F69000DC
:101360003B75F04022AA82AB83ACF07D007E008A00
:10137000828B838CF0120520FFA3AA82AB83EF60DF
:10138000070DBD00EA0E80E78D828E8322000000EB
:00000001FF
